:020000040002F8
:1060000058A40020C1630200C9630200CB630200F0
:10601000CD630200CF630200D163020000000000E4
:10602000000000000000000000000000D363020038
:10603000D563020000000000D7630200D9630200AC
:10604000D96F0200DB63020065770200DB630200A8
:10605000DB630200DB630200696D0200DB630200A8
:10606000DB630200DB630200DB630200DB63020030
:10607000DB630200DB630200DB630200DB63020020
:10608000717702007D700200DB630200DB630200B7
:106090003F740200DB63020043740200DB63020012
:1060A000DB630200DB630200DB630200DB630200F0
:1060B000DB630200DB630200000000000000000060
:1060C000DB630200DB630200DB630200DB630200D0
:1060D000A1700200DB630200DB630200000000002D
:1060E00000000000000000000000000000000000B0
:1060F00000000000000000000000000000000000A0
:10610000000000000000000000000000000000008F
:10611000000000000000000000000000000000007F
:10612000000000000000000000000000000000006F
:10613000000000000000000000000000000000005F
:10614000000000000000000000000000000000004F
:10615000000000000000000000000000000000003F
:10616000000000000000000000000000000000002F
:10617000000000000000000000000000000000001F
:10618000000000000000000000000000000000000F
:1061900000000000000000000000000000000000FF
:1061A00000000000000000000000000000000000EF
:1061B00000000000000000000000000000000000DF
:1061C00000000000000000000000000000000000CF
:1061D00000000000000000000000000000000000BF
:1061E00000000000000000000000000000000000AF
:1061F000000000000000000000000000000000009F
:10620000DFF80CD000F0A0FC00480047090B0300A9
:1062100058A4002030B450E8012F93B2C48923441D
:106220008489A34228BF1B1B0489A34202BFBFF37A
:106230002F8F002007E0C3EA020340E80134002C5E
:10624000E9D14FF001000A6030BC704750E8012FDF
:10625000C2EA024240E801210029F7D1704730B478
:1062600050E8022F1FFAA2F3C488A34202BFBFF373
:106270002F8F00200DE0C48923448489A34228BFC6
:106280001B1BC2EA034340E80234002CE8D14FF064
:1062900001000A6030BC704750E8022FC2EA224277
:1062A00040E802210029F7D17047034653E8022F46
:1062B000D988B2EB324F4FF0000017BF92B241EADB
:1062C000014142EA014104E05A68B2EB324F08BF93
:1062D000012043E80212002AE8D1704730B4044696
:1062E00054E8000F0D4644E80053002BF8D1156028
:1062F00030BC704730B4044654E8000F40EA010552
:1063000044E80053002BF7D1156030BC704730B41F
:10631000044654E8000F00EA010544E80053002B4E
:10632000F7D1156030BC704730B4044654E8000F14
:1063300080EA010544E80053002BF7D1156030BC1A
:10634000704730B4044654E8000F00EB010544E800
:106350000053002BF7D1156030BC704730B40446B1
:1063600054E8000FA0EB010544E80053002BF7D1DF
:10637000156030BC704770B404464FF0000054E81C
:10638000006F0D68AE4207BF44E80023012044E8D7
:1063900000630E60002B1CBF0020F0E770BC70474C
:1063A00030B4044654E8000F88422CBF451A054615
:1063B00044E80053002BF5D1156030BC7047000055
:1063C0000648804706480047FEE7FEE7FEE7FEE78F
:1063D000FEE7FEE7FEE7FEE7FEE7FEE749740200A0
:1063E000016202002DE9F05F0546002092469B46BF
:1063F00088460646814640241BE0284641464746DB
:10640000224600F0EDF953465A46C01A914110D386
:1064100011461846224600F016F82D1A67EB0108BF
:106420004F4622460120002100F00DF817EB00092D
:106430004E41201EA4F10104DFDC484631462A46C5
:106440004346BDE8F09F202A04DB203A00FA02F11F
:10645000002070479140C2F1200320FA03F3194352
:10646000904070470048704724FA03000649074AE5
:106470000868504343F239021044086040087047EE
:106480000149086070470000003100206D4EC64190
:1064900040EA01039B0703D009E008C9121F08C0A6
:1064A000042AFAD203E011F8013B00F8013B521E26
:1064B000F9D27047D2B201E000F8012B491EFBD29D
:1064C00070470022F6E710B513460A4604461946FF
:1064D000FFF7F0FF204610BD30B505462A460B46B3
:1064E00012F8010B13F8014B08B1A042F8D01CB10F
:1064F000002802D06D1CF1E7284630BD10B50446D7
:1065000004E00B7800F8013B03B1491C521EF8D29D
:10651000204610BD421C10F8011B0029FBD1801A37
:10652000704730B504460020034600E05B1C9342F0
:1065300003D2E05CCD5C401BF8D030BD034611F8BF
:10654000012B00F8012B002AF9D11846704770B5CD
:10655000064601F007FA046805460A220021304683
:1065600000F04EF92C6070BD2DE9FE4F81EA030466
:1065700004F0004421F0004100944FF0000B23F0A0
:10658000004350EA01045ED052EA03045BD0C3F337
:106590000A54C1F30A552C44A4F2F3340194A0FB2D
:1065A0000254C1F3130141F48011C3F3130343F404
:1065B000801301FB024400FB034E840A970A44EA5D
:1065C000815447EA8357A4FB076802958D0A05FBAF
:1065D00007854FEA932C04FB0C542705029D4FEAD4
:1065E000065847EA1637B5EB08056EEB070C870E21
:1065F000920E47EA811742EA8312A7FB0201B6EB2B
:106600000B0164EB00042B0D43EA0C335E1844EBE2
:106610001C50DA465146E7FB0201C5F313044FEA6A
:106620000B3343EA14534FEA0432019C43EA060356
:10663000A4F10C040294009CCDE900B400F037F9F9
:1066400003B0BDE8F08F00200146F9E72DE9F04DD9
:1066500081EA030404F0004B21F0004514464FF09A
:10666000000A23F0004150EA050220D054EA01025A
:106670001DD0C5F30A570246C5F31303C1F3130037
:10668000C1F30A5640F4801543F48013A7EB0608C3
:10669000101BD64608F2FD3873EB050002D308F153
:1066A000010801E092185B41B8F1000F03DA002005
:1066B0000146BDE8F08D00204FF480110646844667
:1066C0000EE0171B73EB050705D3121B63EB0503E5
:1066D00006434CEA010C49084FEA300092185B412E
:1066E00050EA0107EDD152EA030012D082EA040019
:1066F00083EA0501084305D0101BAB4106D20122F5
:10670000002306E000224FF0004302E06FF0010298
:1067100053101AEB06004CEB085110EB0A0041EB4A
:106720000B01BDE8F04D00F0B3B80EB540F23341B7
:1067300002910021CDE900110A460B4600F0B7F89E
:1067400003B000BD70B5C1F30A5201F0004500244A
:10675000C1F3130140F2FF3341F480119A4201DA90
:10676000002070BD40F233439A42A2F2334203DC70
:10677000524200F035F800E090402C43F1D0404206
:1067800070BDC1F30A5210B5C1F3130140F2FF33DB
:1067900041F480119A4201DA002010BD40F23343E7
:1067A0009A42A2F2334203DC524200F019F810BDC3
:1067B000904010BD30B50B46014600202022012438
:1067C00009E021FA02F59D4205D303FA02F5491BBF
:1067D00004FA02F52844151EA2F10102F1DC30BDD5
:1067E000202A04DB203A21FA02F00021704721FA26
:1067F00002F3D040C2F1200291400843194670478D
:106800002DE9F04791460E4680460446002514F8CF
:10681000017B2FB1FFF726FE0068C05DC007F6D1EF
:106820002B2F02D02D2F1ED0641E4A463146204603
:1068300000F0AEF926B13268A24201D1C6F800805C
:106840006A054FF0020418D50023D0EB030563EB73
:1068500001025D1B934109DB0023D0EB030063EBD6
:106860000101BDE8F08745F48065DEE701F07AF8C4
:10687000046000204FF00041F3E7021E71F10002B6
:10688000EFDA01F06FF804604FF0FF304108E8E7FD
:1068900010B5141E73F1000408DA401C41F1000128
:1068A00092185B411A4301D120F0010010BD2DE97F
:1068B000F04D92469B4611B1B1FA81F202E0B0FA76
:1068C00080F220329046FFF7BEFD04460F4640EAB4
:1068D0000A0041EA0B0153465A46084313D01146B9
:1068E00053EA010019D0C8F140025046FFF778FF83
:1068F00005460E46504659464246FFF7A4FD08435A
:1069000005D0012004E020463946BDE8F08D002086
:10691000054346EAE0762C4337430A986305E40AC8
:10692000A0EB08000022FD0A44EA47540A3002D5D1
:1069300000200146E9E7010510196941DDE9084534
:1069400000196941BDE8F04DA2E72DE9FE4F8046F0
:1069500081EA0300C00F0C46009021F0004123F0B3
:106960000045B8EB0200A94105D2404621469046B9
:106970001C460B46024623F00040104347D0270D2B
:10698000C7F30A00C3F30A510290401A019040284D
:106990006BDAC3F3130040F4801B0098924620B1D9
:1069A0000023D2EB030A63EB0B0B01985946C0F1AD
:1069B00040025046FFF747FD06460D4650465946F1
:1069C000019A00F0D3F810EB08006141002487EA37
:1069D000115284EAE7731A4340D0009A62B3019AD5
:1069E000012A4FEA075215DC001B61EB02014FF050
:1069F000004202EA0752CDE90042001C41F5801135
:106A000032462B46FFF753FF03B0BDE8F08F4046F8
:106A10002146F9E7001B61EB0201001C41F58013E0
:106A200000185B412018A2F5001747EB030140EA6C
:106A3000D570B6196D4111E06D084FEA360645EA8A
:106A4000C0754FEA0752001B61EB0201001C41F5C3
:106A5000801149084FEA30000019514132462B4657
:106A600003B0BDE8F04FFFF713BF009801224000CC
:106A70000023D0EB020263EBE073009821464FEA5B
:106A8000E074B8EB000061EB0401E9E783F0004338
:106A90005BE781F0004158E770B521F00043034304
:106AA0000CD0C1F30A550024D5EB040564EB0403B4
:106AB000D617AD1AB34102DB0020014670BD201885
:106AC00041EB025170BD0EB5C10F80EAE070084481
:106AD000CA07002140F233438DE80E000A460B46F8
:106AE000FFF7E5FE03B000BDC1F30A52C1F3130185
:106AF00040F2FF3341F480119A4202DA002001464D
:106B0000704740F233439A42A2F2334202DC5242CF
:106B1000FFF766BEFFF797BC30B5041E71F10004A5
:106B200004DB4FF00044404264EB0101141E73F19A
:106B3000000405DB1C464FF00043524263EB0403A4
:106B4000994208BF904230BD064C074D06E0E06810
:106B500040F0010394E8070098471034AC42F6D3A4
:106B6000FFF752FB1803040038030400202A06DB59
:106B7000CB17203A41FA02F043EAE07306E041FA0B
:106B800002F3D040C2F120029140084319467047F9
:106B90002DE9F74F4FF00009009C1546CA4614F83E
:106BA000010B302801D0ADB115E014F8010B4FF006
:106BB0000109782803D0582801D04DB10BE00DB160
:106BC000102D08D14FF00009102514F8010B02E038
:106BD000082500E00A2500273E46B8464FEAE57B37
:106BE00016E0A5FB07230BFB073105FB080005FB9F
:106BF0000616030CD71846F100061FFA80F8381E57
:106C00004FF0010976F5803000D3CA4614F8010B25
:106C1000294600F06FF80028E3DA019838B1B9F19D
:106C2000000F01D0641E00E0009C01980460BAF1DE
:106C3000000F08D000F096FE02210160C81E014638
:106C400003B0BDE8F08F310441EA174148EA07403C
:106C5000F6E72DE9F04D00231A461B1A8A4103DBA3
:106C600000200146BDE8F08DC1F30A52C1F31301C3
:106C700041F480154FF0000BD10702D100186D418F
:106C8000521E0027044640F2FF11384601EB620A0B
:106C90003E468046024600204FF48011FFF7A0FDDB
:106CA000C2197141BB1846EB0100B4EB030C75EB44
:106CB000000C04D3E41A65EB000517460E462419B0
:106CC00008F101006D4180463428E3DDF91946EBF7
:106CD0000600091BA84103D24FF0FF32134601E022
:106CE000002213461BEB070046EB0A51BDE8F04DAE
:106CF000FFF7CEBD3A2800D2303820F02002412ADA
:106D000001D3A2F13700884201D34FF0FF30704722
:106D100070B58C1810F8015B15F0070301D110F85D
:106D2000013B2A1106D110F8012B03E010F8016B8A
:106D300001F8016B5B1EF9D12B0705D40023521E0D
:106D40000DD401F8013BFAE710F8013BCB1A921C75
:106D500003E013F8015B01F8015B521EF9D5A14273
:106D6000D8D3002070BD00002DE9F04700268AB07E
:106D7000DFF85091B0464FF48075012437460696EF
:106D800028460CF0C1F938B1D9F80403204203D0E9
:106D900028460CF0AFF926432D1D64007F1CADB2D0
:106DA000082FEDD34FF4BE7420460CF0ADF948B176
:106DB00020460CF09FF946F0004606AA012100206B
:106DC0000CF084F9404D16F0FF0F15D00127002478
:106DD00037420DD009EB8401D1F81005D1F8101518
:106DE000C0F3042055F82420C1F3014102B19047BB
:106DF0007F00641C082CEBD3002E5FDA4FF0FF30CD
:106E0000CDF8108054E0281910F8507F90F9000058
:106E100027F0C008401C3BD007A940460BF05CFBA4
:106E200010B34FEA9719404605F0F6FA55F820706E
:106E30001FB1B9F1030F03D006E0B9F1030F27D159
:106E400004A940460BF050FB4FF0A04101EB880035
:106E5000D0F8000706A9C0F3014A40460BF03CFBFE
:106E600018B1BAF1020F03D012E0BAF1030F0FD13B
:106E7000B9F1030F08D1BAF1020F1DD0022140462B
:106E80000CF007F9761CF6B217B149464046B847F0
:106E9000641C042CB7D3002E10D06A4601210020B8
:106EA0000CF014F906990098884207D006900498CF
:106EB000002634460790A6E70321E0E70AB0BDE8C4
:106EC000F087000000600040CC6700202DE9F04111
:106ED000C0B01D46DDF8188116460C46074640290D
:106EE00004D93AAA00F014F93AAF142440211AA8A0
:106EF000FFF7E7FA40212AA8FFF7E3FA22463946CE
:106F00001AA8FFF7C5FA224639462AA8FFF7C0FAA1
:106F100000201AA92AAA0B5C83F036030B54135CD9
:106F200083F05C031354401C4028F4DB684600F0F7
:106F30003DFA40221AA9684600F001F92A46314676
:106F4000684600F0FCF84146684600F04DFA684695
:106F500000F02CFA40222AA9684600F0F0F814222A
:106F60004146684600F0EBF84146684600F03CFABE
:106F700040B0BDE8F08100F01F02012191404009BE
:106F8000800000F1E020C0F88012704700F01F027E
:106F9000012191404009800000F1E020C0F800117B
:106FA000704700F01F02012191404009800000F16C
:106FB000E020C0F8001270474907090E002806DAE1
:106FC00000F00F0000F1E02080F8141D704700F180
:106FD000E02080F8001470472DE9F0414FF48076EE
:106FE00030460BF0F6FC234CB50560B130460BF093
:106FF000F7FC0120C5F80803607920B90120607111
:107000002168002088474FF4827630460BF0E1FC7F
:1070100040B130460BF0E4FC0220C5F808032168BB
:10702000012088474FF4887630460BF0D2FC40B1FF
:1070300030460BF0D5FC1020C5F80803216802206B
:1070400088474FF4867738460BF0C3FC00280ED0F3
:1070500009480026066038460BF0C2FC0820C5F837
:107060000803A6712168BDE8F04103200847BDE888
:10707000F0810000E02F0020340C00400748002180
:10708000C0F84011C0F84411C0F84811C0F84C11C4
:10709000C0F80011C0F8041111F016B8001001403A
:1070A00004220021014806F089BF00000040024090
:1070B00000F070BB70B50E46144900EB400001EBC8
:1070C000C0051446E86A183520B101280FD00228FF
:1070D00005D113E0284600F091FBA04201D2002424
:1070E00011E022463146284600F0C0FB0BE028465E
:1070F00000F084FBA042F4D20446F2E73146284671
:1071000000F087FB0446204670BD0000747100202B
:1071100030B59AB0054614460B46684600F046F96D
:1071200000280AD11A462946684600F008F80028C7
:1071300003D12146684600F057F91AB030BD2DE959
:10714000F04115000E46044614D034B12EB1206E25
:1071500028B103206066BDE8F0810120FBE7606E86
:107160000028F8D104F11E074FF001086D1E01D36D
:10717000606E08B10020EEE7B4F91C003278411CC3
:10718000A183C25560690830606105D1A069401CC7
:10719000A06101D1C4F86480A08B402802D12046B0
:1071A00000F048F8761CE1E770B50446B0F91C0021
:1071B0008023411C0AB204F11E050026A283372851
:1071C000435503DC15E0411CA1834655B4F91C006E
:1071D0004028F8DB204600F02DF802E0411CA18396
:1071E0004655B4F91C003828F8DB06E0411CA183A1
:1071F0004655B4F91C003828F8DBA069010E84F864
:107200005610010C84F85710010A84F8581084F8BD
:1072100059006069010E84F85A10010C84F85B1063
:10722000010A84F85C1084F85D002046BDE87040D7
:10723000AFF300802DE9F04F5B4CD6B06E461ECC0C
:107240008A4693469E460021CDF8544100EB8102C8
:1072500012F81E3F1B0646F82130547843EA0443D7
:1072600046F82130947843EA042346F82130D27856
:10727000134346F82130491C1029E7DB5FF0100169
:1072800006EB810252F80C3C52F8204C634052F855
:10729000384C52F8402C544063404FEAF37246F8A1
:1072A0002120491C5029EBDB026854924368539318
:1072B00084685294C168519105690027B146509580
:1072C00059F8276021EA030806EBF26C03EA04068A
:1072D00046EA080635440CEB05060D4621464FEA02
:1072E000B304564413467F1C3246142FE8DB1426A1
:1072F0004FEA090783EA040857F826C088EA01081C
:107300000CEBF26C4544AC440D4621464FEAB30405
:10731000DC441346761C6246282EEBDB2826B94651
:1073200004EA010859F82670761C07EBF26C44EA6F
:1073300001071F4047EA08073D440CEB05070D46CF
:1073400021464FEAB304774413463A463C2EE7DB26
:107350003C26CC465CF82670761C07EBF26883EA84
:1073600004074F403D4408EB0507559D502E2F4420
:107370000D4621464FEAB30413463A46EADB549ED3
:10738000F2190260539A1A444260529A224482606F
:10739000519A1144C16050992944016100218183AF
:1073A00056B0BDE8F08F0000A8CD030098B10021D1
:1073B000416181618183094A0260094A4260074A4A
:1073C000D2438260064AD243C260064A0166026125
:1073D0004166084670470120704700000123456759
:1073E00089ABCDEFF0E1D2C330B50D46040006D035
:1073F0002DB1606E002803D1206E10B10FE0012086
:1074000030BD2046FFF7D0FE002001462218401C68
:1074100091774028FADB61610120A161206600209C
:1074200020F0030100F003026158C2F10302D20010
:10743000D1402954401C1428F2DB002030BD10F04C
:1074400091BD0CF00FBB0000F0B5B5480023021D44
:107450000178101D01254FF0805406290BD11678B4
:10746000360708D10678C6F30316032E06D0042E7D
:1074700004D0052E02D0062907D00EE0B4F824630C
:10748000A84FC6F304263E6002E01678360704D102
:107490000678C6F30316032E02D0062904D00FE0A7
:1074A000A24FA14E7E670EE01678360708D1067807
:1074B000C6F30316032E06D0042E04D0052E02D0E8
:1074C000062907D00EE0D4F84462994FC6F342363D
:1074D0003E6002E01678360704D10678C6F303163C
:1074E000032E02D0062906D011E0924E376827F00D
:1074F000807737600EE01678360708D10678C6F335
:107500000316032E06D0042E04D0052E02D0062921
:107510000AD011E04FF08046C6F80C31C6F81031A1
:10752000834E361F336002E01678360704D10678A2
:10753000C6F30316032E02D0062905D00CE07C4FBB
:10754000032664373E600AE01678360704D10678D1
:10755000C6F30316032E02D006290DD014E0764F91
:1075600005263E60744E78363560734E08363360BB
:107570003F263F1D3E6002E01678360704D10678AC
:10758000C6F30316052E02D0062957D062E06B4ED3
:1075900036686B4F3E60694E361D36683F1D3E6053
:1075A000664E083636683F1D3E60644E0C363668BF
:1075B0003F1D3E60614E103636683F1D3E605F4E97
:1075C000143636683F1D3E605C4E183636685C4F98
:1075D00020373E60594E1C3636683F1D3E60574E80
:1075E000203636683F1D3E60544E243636683F1DB7
:1075F0003E60524E283636683F1D3E604F4E2C3658
:1076000036683F1D3E604D4E303636684C4F403731
:107610003E604A4E343636683F1D3E60474E38362F
:1076200036683F1D3E60454E3C3636683F1D3E6025
:10763000424E403636683F1D3E6002E016783607FF
:1076400008D10678C6F30316032E06D0042E04D004
:10765000052E02D0062907D019E0D4F85812394A6D
:1076600001F04F01116002E0117809070FD1007895
:10767000C0F30310032803D0042801D0052806D145
:1076800031480168C90702D06FF001010160D4F8E8
:107690003001062808D1D4F83401062804D12B483B
:1076A000016841F48061016022487438016841F446
:1076B00070010160BFF34F8FBFF36F8F4FF0102148
:1076C000D1F80002002803DBD1F80402002822DAF6
:1076D0001F4A15601F480468002CFCD01524C1F80F
:1076E00000420568002DFCD0C1F804420168002961
:1076F000FCD0136001680029FCD0BFF34F8F0D4808
:10770000F0380168144A01F4E06111430160BFF3ED
:107710004F8F00BFFDE7124910480860F0BD000020
:10772000E00F00F0403501400DF0ADBA00C0074059
:107730003C050040FCED00E0105600400404001041
:1077400020C50040E40E0040000400403C1700400B
:1077500004E5014000E401400400FA050090D00374
:10776000C43000200148006800470000E82F0020D6
:1077700038B5064C20680025002805D0044840682C
:10778000804725602068009038BD0000000101405E
:10779000F82F002010B5124C02202061606111A06A
:1077A000A06104F17800E0614FF4006020620020E5
:1077B000A06260620BA1A164E06204F67801E1645A
:1077C0001021A065C4E91410E06509A1E01DFEF7D1
:1077D000B5FE08A12046FEF7B1FE2020A07110BD25
:1077E000747100205465726D696E616C0000000058
:1077F0005254540053454747455200000269C1683E
:107800008A4203D88068401A104400E0501A401E93
:1078100070472DE9F047C4681746894606464FF081
:1078200000083069A04201D9051B02E0B168201AA6
:107830000D1AB0686D1E001BA84200D80546BD4257
:1078400000D33D4670682A4620444946FEF720FE94
:10785000B0687F1B2C44A844A944A04200D1002456
:10786000F460002FDDD14046BDE8F0872DE9F041FE
:1078700004468846D4E90207C51BE16860681646DD
:107880000844B54206D94146FEF702FEB819E06049
:10789000BDE8F0812A464146FEF7FAFD761B08EB6B
:1078A000050132466068FEF7F3FDE660F0E7000090
:1078B0000FB41CB50246002007AC00290BD0491EAE
:1078C000CDE90021054B6A462146069801F032F8C1
:1078D000009A002111701CBC5DF814FB639002003B
:1078E0000FB4084B10B504A902AA039801F022F8BE
:1078F000044602A9002001F0BFFB204610BC5DF841
:1079000014FB0000799002007CB5044600201D465F
:10791000164600290BD0491ECDE90041044B6A46AA
:107920002946304601F006F8009A002111707CBD0E
:107930006390020003B401984100009850EAC1200E
:1079400018BF04204A0D18BF40F0010040F2FF723A
:10795000B2EB515F08BF40F00200012808BF0520CC
:1079600002B070470048704704310020000000005A
:107970002DE9F04D2DED040B2DED0E8B96B0DDE9CC
:107980002550279CDDF890A025F0004624F0004803
:10799000BAF1000F14BF0121002101EB4502FC499F
:1079A00053184A1093422AD3002814BF01230023FE
:1079B00003EB44030B44F7498B4220D358EA000100
:1079C0009FEDF59B76D0DFF8D8B35D4503D1BAF1D2
:1079D000000F05D188E0BAF1000F08BF002100D0E8
:1079E000012101EB450111F5001F08D8002814BF43
:1079F0000121002101EB440111F5001F0BD99DED80
:107A0000261B9DED240B16B0BDEC0E8B04B0BDE81B
:107A1000F04D00F069BE0027002DBCBFE14988454C
:107A200021DAE1498845A8BF02271CDAC3451ADCE0
:107A3000DE4901EB2851142908DDC1F1340220FA96
:107A400002F101FA02F282420DD108E058B9C1F107
:107A5000140228FA02F101FA02F2424503D101F0C0
:107A60000101C1F1020756EA0A0124D1002C22DAF1
:107A7000002D18BF022F01D0012F0AD0022000F0E4
:107A800091FE16B0BDEC0E8B04B0BDE8F04D00F0D9
:107A900013BE022000F086FE00F00EFE51EC100B2B
:107AA00081F0004141EC100B16B0BDEC0E8B04B020
:107AB000BDE8F08D18E09FEDBEAB9FEDBF8B0028B9
:107AC00071D1B848804522D105F1804010F5801071
:107AD00008BFBAF1000F07D0B3450ADC002CA8BFDD
:107AE0009DED260BE0DA0DE0B0EE490AF0EE690AF2
:107AF000DAE7002C06DA9DED260B51EC100B81F035
:107B000000416FE0AE48784490ED000BCCE7D845DB
:107B10004DD1002C48DA2EB186423AD1BAF1000F8D
:107B200042D126E0BAF1000F13D0022000F03AFE55
:107B300000F0F6FD8DED020B9DED240B8DED000B9D
:107B400010EE900A039961F31E0003909DED020B65
:107B5000AAE78DED02AB9DED240B1AEE901A10EE04
:107B6000900A8DED000B61F31E0003909DED020B5A
:107B70009AE78DED028B9DED240B18EE901A10EE16
:107B8000900A8DED000B61F31E0003909DED020B3A
:107B90008AE709DA9DED240B51EC190B53EC102BFD
:107BA000FEF754FD1EE020E09DED240B7CE78642AD
:107BB0001BDAB4F1804F0DD0A4F10050B0F1FF50AA
:107BC00013D1002D11DB9DED240B51EC100B0EF0A9
:107BD00083F907E09DED240B53EC102B51EC100BB7
:107BE00000F0C2BC41EC100B5EE79DED240B51ECA4
:107BF000100B05F02EFEBAF1000FCDE90E0142D1B7
:107C00009FED710B46B3A6F1E040B0F17F600CD060
:107C10005E4538D1002D00DAA7B3022F0CBF01203A
:107C20004FF0FF30FEF74FFFDCE7002D01DD002CA9
:107C30000DDA002D01DD002C1FDB002D16DA002CE3
:107C400014DB012F08BF9FED620B3FF42DAFB0EEA8
:107C50004A0AF0EE6A0A27E7022F18BF002D0CD05F
:107C6000012F0AD1002DFFF61FAF06E0002DB8BF8F
:107C7000002C08DA012F3FF417AFB0EE480AF0EEFF
:107C8000680A11E71BE0012000EBE57050EA0701EC
:107C900015D0791EB0EE498AF0EE698A084308BF14
:107CA0009FED4D8B4E480025804570DD4D494E4877
:107CB000884514DDB0420DDB002C19DB2FE00120DC
:107CC00000F070FD16B0BDEC0E8B04B0BDE8F04DB9
:107CD00000F016BDB34502DC002C09DC1FE0864233
:107CE00002DA002C1BDA03E05E452BDD002C16DDEA
:107CF000022000F057FD00F013FD8DED020B53EC58
:107D00001A2B51EC180BFEF72FFCCDE9000103995B
:107D1000019861F31E0003909DED020BC4E6022062
:107D200000F040FD00F00CFD10EE901A18EE900AE5
:107D30008DED020B8DED008B61F31E0003909DED28
:107D4000020BB1E69DED0E0B53EC192B51EC100B11
:107D5000FEF79CFE9FED260BCDE9080153EC102B9E
:107D60009DED080B51EC100BFEF7FEFB9FED221B67
:107D700053EC112BFEF78DFE9DED081B53EC112BE0
:107D8000FEF7F2FB9FED1E1B53EC112B3CE08CE049
:107D9000FFFF1F00FFFF0F00000000000000F03F8A
:107DA0000000F03F0000F07F0000404301FCFFFFB7
:107DB000000000000000F07F000000000000000054
:107DC0001E7F010000000000000000000000008095
:107DD000000000000000F0FF000000000000F0BF05
:107DE0000000E0410000F043FFFFEF3F0000000013
:107DF000000000000000D03F555555555555D53F62
:107E0000000000000000E03FFEF743FE9DED080B80
:107E100041EC1A0B53EC102B51EC100BFEF7A4FBAA
:107E200053EC1A2BFEF7A0FB41EC1A0B9FEDFE0B57
:107E300053EC102B9DED080B51EC100BFEF794FB4F
:107E400041EC1B0B9FEDFA0B51EC1A0B53EC102B72
:107E5000FEF78AFB41EC1A0B9FEDF70B53EC102B4E
:107E60009DED080B51EC100BFEF77EFB53EC1A2B2B
:107E7000FEF70CFE41EC1A0B51EC1B0B53EC1A2BCA
:107E8000FEF763FD0690CDE906519DED060B53EC20
:107E90001B2B51EC100BFEF7F9FD53EC1A2BFEF7E0
:107EA000F8FD41EC100B00F0A1B90020B6F5801FE1
:107EB0000EDA9FEDE30B53EC102B9DED0E0B51EC06
:107EC000100BFEF751FBCDE90E016FF034000E46AA
:107ED00000EB2650A0F2FF37C6F31300DA4940F05A
:107EE0007F6646F040568842D8BF002408DDD74957
:107EF0008142C8BF012403DC0024A6F580167F1C44
:107F0000D348784400EBC4000F9690ED00CB9DED74
:107F10000E0B53EC1C2B51EC100BFEF7B7FD9DED37
:107F20000E0B41EC1B0B53EC1C2B51EC100BFEF712
:107F30000CFD41EC100B51EC190B53EC102BFEF720
:107F400085FB41EC1D0B51EC1B0B53EC1D2BFEF77D
:107F50000BFB41EC1A0BBF488DED10AB784410952C
:107F600090ED000B4FF0005040EA660000EB8440BB
:107F70008DED080B00F5002009909DED080B53ECEA
:107F80001C2B51EC100BFEF781FD9DED0E1B53ECED
:107F9000112BFEF77EFD41EC100B53EC102B9DEDE9
:107FA000100B51EC100BFEF7DFFA9DED080B41ECC6
:107FB0001C0B53EC102B9DED100B51EC100BFEF72E
:107FC000D3FA53EC1B2BFEF764FD53EC1C2BFEF78E
:107FD0005DFD53EC1D2BFEF7C7FA41EC1C0B53EC77
:107FE0001A2B51EC1A0BFEF7BFFA41EC1B0B9A4807
:107FF0000621B0EE4B0AF0EE6B0A784400F0E0FA8E
:10800000B0EE401AF0EE601AB0EE41DAF0EE61DA4E
:1080100053EC1B2B51EC1B0BFEF7A6FA53EC1D2B5C
:10802000FEF7A2FA9DED100B41EC1B0B53EC1A2B43
:1080300051EC100BFEF789FC53EC1C2BFEF794FA65
:1080400053EC1B2BFEF781FC9DED100B41EC1B0B41
:1080500053EC102B51EC100BFEF786FA41EC1D0B84
:108060009FED7FEB53EC1E2BFEF76FFC53EC1B2BAD
:10807000FEF76BFC0890CDE908519DED080B53EC21
:108080001E2B51EC100BFEF701FD53EC1D2BFEF7E0
:10809000FDFC53EC1B2BFEF7FCFC9DED080B41ECAB
:1080A0001D0B53EC102B9DED100B51EC100BFEF73C
:1080B0005BFA41EC1B0B53EC1A2B51EC1D0BFEF73A
:1080C00053FA9DED080B41EC1A0B53EC102B51ECBD
:1080D0001C0BFEF749FA53EC1A2BFEF736FC41EC69
:1080E0001A0B51EC1B0B53EC1A2BFEF72EFC0C90C9
:1080F000CDE90C519DED0C0B53EC1B2B51EC100BEF
:10810000FEF7C4FC53EC1A2BFEF7C3FC41EC1B0B2F
:108110009FED550B53EC102B9DED0C0B51EC100B00
:10812000FEF722FA41EC1A0B9FED510B51EC1B0BA1
:1081300053EC102BFEF718FA41EC1B0B9FED4E0B86
:1081400053EC102B9DED0C0B51EC100BFEF70CFAC1
:1081500053EC1B2BFEF7F9FB41EC100B484878441D
:1081600000EBC40090ED001B51EC100B53EC112BF5
:10817000FEF7EBFB41EC1B0B3846FEF7A4FCCDE908
:10818000080153EC1B2B51EC1A0BFEF7DEFB41EC04
:10819000100B3C48784400EBC40090ED00CB51EC50
:1081A000100B53EC1C2BFEF7D0FB9DED081B53EC82
:1081B000112BFEF7CAFB0690CDE906519DED080B89
:1081C00053EC102B9DED060B51EC100BFEF75EFCF3
:1081D00053EC1C2BFEF75AFC53EC1A2BFEF756FC03
:1081E00053EC1B2BFEF755FC41EC100B9DED261BB1
:1081F00053EC102B8DED001B00959DED260B51ECE3
:10820000100BFEF7B1F99DED000B41EC1A0B53EC8E
:10821000102B9DED260B51EC100BFEF737FC9DED5E
:10822000061B53EC112B2FE0000000604715F73FB1
:10823000FE822B654715F73F44DF5DF80BAE543ED9
:1082400000000000000040438E9803007AB60B0047
:10825000127A0100C87A01004A790100000000008A
:108260000000000000000840000000E009C7EE3FE9
:10827000FD033ADC09C7EE3FF5015B14E02F3EBE7B
:10828000D677010090770100FEF76EF953EC1A2BB8
:10829000FEF75BFB9DED060B41EC1A0B53EC102B2C
:1082A0009DED000B51EC100BFEF75EF9CDE90C01D2
:1082B0009DED0C0B51EC1A0B53EC102BFEF745FB0C
:1082C000CDE902010C46AA498C422FDB611A084312
:1082D00018D19DED0C0B53EC102B9DED020B51ECC6
:1082E000100BFEF7D3FB41EC1B0B9FEDA30B51ECE6
:1082F0001A0B53EC102BFEF728FB53EC1B2BFEF74D
:108300000BFC2DD2022000F04DFA00F009FA10EE1D
:10831000901A18EE900A8DED020B8DED008B61F333
:108320001E0003909DED020BFFF7BEBB944A24F0A4
:108330000041914214D39349214408437FF4EFACA8
:108340009DED0C0B53EC102B9DED020B51EC100B23
:10835000FEF79CFB53EC1A2BFEF7DEFB7FF6DFAC3F
:1083600024F000408849894A002601EB20518242CE
:108370002BDA481C4FF4801121FA00F02044844A83
:10838000C0F30A517A44A1F2FF3192ED000B814A09
:108390008DED080BCA4020EA0202C0F3130040F43E
:1083A0008010C1F1140120FA01F60992002CB8BF27
:1083B00076429DED080B53EC102B9DED0C0B51EC10
:1083C000100BFEF763FBCDE90C019DED0C0B51EC9E
:1083D0001A0B53EC102BFEF7B8FA9FED6F0B0890B9
:1083E000CDE9085153EC102B9DED080B51EC100B0F
:1083F000FEF7BAF841EC1B0B9FED690B53EC102B09
:108400009DED080B51EC100BFEF7AEF89DED0C0B3B
:1084100041EC1C0B53EC102B9DED080B51EC100B99
:10842000FEF734FB53EC1A2BFEF733FB9FED5E1B7C
:1084300053EC112BFEF798F853EC1C2BFEF785FA42
:1084400041EC1A0B51EC1B0B53EC1A2BFEF77DFA87
:10845000CDE902019DED020B53EC1B2B51EC100BEF
:10846000FEF714FB53EC1A2BFEF713FB9DED020BEA
:1084700041EC1A0B53EC102B51EC100BFEF774F877
:10848000CDE908014A489DED080B0521784400F02C
:1084900097F89DED081B51EC100B53EC112BFEF7D8
:1084A00063F89DED021B53EC112BFEF7F2FACDE9B8
:1084B00006019DED020B53EC1A2B51EC100BFEF74D
:1084C00053F853EC1A2BFEF740FA9FED3B0B41ECAF
:1084D0001A0B53EC102B9DED060B51EC100BFEF715
:1084E000D5FA9DED060B41EC1B0B53EC102B9DEDCB
:1084F000020B51EC100BFEF737F853EC1B2BFEF779
:10850000A5F853EC1A2BFEF7C1FA9DED021B53ECB4
:10851000112BFEF7BBFA53EC192BFEF7BAFACDE993
:10852000020101EB065001150029C8BF039015DCBC
:108530009DED020B324651EC100BFEF7ADFAFFF742
:10854000F9F9042808BF00F0FBF832469DED020B54
:1085500051EC100BFEF7A0FACDE902019DED020BE4
:1085600051EC180B53EC102BFDF7FEFFFFF73ABB55
:108570000000904000000000FE822B654715973CEC
:1085800000CC904000346F3F01FCFFFF0000E03F53
:10859000A0760100FFFF0F0000000000432EE63F21
:1085A000396CA80C615C20BEEF39FAFE422EE63F22
:1085B000E87401000000000000000000000000401E
:1085C00070B504462DED028B4D1E00EBC500B0EEDC
:1085D000408AF0EE608A90ED000B35F0060017D06F
:1085E00053EC182B51EC100BFDF7BEFF41EC100BB8
:1085F0006D1E04EBC50090ED001B51EC100B53EC0D
:10860000112BFEF7A2F941EC100B35F00600E7D173
:10861000022D36D0042D1CD0062D1CBFBDEC028BC4
:1086200070BD53EC182B51EC100BFDF79DFF94ED32
:108630000A1B53EC112BFEF788F953EC182BFDF7AE
:1086400093FF94ED081B53EC112BFEF77EF941ECE0
:10865000100B53EC182B51EC100BFDF785FF94ED2C
:10866000061B53EC112BFEF770F953EC182BFDF79A
:108670007BFF94ED040B53EC102BFEF766F941ECF5
:10868000100B53EC182B51EC100BFDF76DFF94ED14
:10869000021B53EC112BFEF758F953EC182BFDF786
:1086A00063FF94ED001B53EC112BFEF74EF9BDEC6C
:1086B000028B41EC100B70BD9FED070B10B553EC16
:1086C000102B9FED070B51EC100BFDF7BFFF41EC9A
:1086D000100B10BD000000000000000000000000B2
:1086E000000000000000F03F10B553EC112B51ECDE
:1086F000100BFEF72AF941EC100B10BD0000000032
:108700009FED050B10B553EC102B51EC100BFDF742
:108710009DFF41EC100B10BD0000000000000000A8
:108720009FED050B10B553EC102B51EC100BFDF722
:108730001BFF41EC100B10BD00000000000000709A
:108740009FED050B10B553EC102B51EC100BFDF702
:108750000BFF41EC100B10BD0000000000000010EA
:1087600002E008C8121F08C1002AFAD170477047FA
:10877000002001E001C1121F002AFBD17047000058
:108780000121202803DA81400548014003E0402808
:1087900002DA2038814009B101207047002070477B
:1087A000FC06FFBD0149086070470000043100204D
:1087B0002DE9FF5F82B00021DDE90430020DDDF814
:1087C00040B0034318D044F61050A2F2FF324243A7
:1087D0001514119801281FD0A5EB0B00401C5FEA6F
:1087E000000A4FF000064E4FDFF83891B046504671
:1087F00015D5CAF1000413E0119801244AA30128F9
:1088000001D16FEA0B010298119AC0E90031C0E969
:10881000024206B0BDE8F09FCBF10000DFE704465E
:108820000021404A491842EB0450CDE9001012E003
:10883000E00707D032463B4640464946FDF794FEE6
:108840008046894632463B4610461946FDF78CFE67
:1088500006460F466410002CEAD1DDE90401DDE98B
:108860000023BAF1000F06DAFDF77EFE42464B46C2
:10887000FDF77AFE05E0FDF7E9FE42464B46FDF7BF
:10888000E5FE04460E460022284BFEF745F903D8C4
:108890004FF0FF30014607E00022254B20463146CD
:1088A000FEF753F8FEF720F9102409E0002C0ADB4C
:1088B0000A220023FDF796FD039B30321A55641EF1
:1088C00050EA0102F2D1641C039AC4F1110314446A
:1088D000119A012A03D0012208430DD10AE008436E
:1088E00004D000204FF0110B119072E7A3EB0B05A1
:1088F0006D1E0DE05B4504DD4FF0000205F1010542
:1089000004E003DA4FF00002A5F10105002AECD0E3
:1089100002981199C0E90231C0E9004579E70000E9
:10892000000014400000F03F300000000000F04361
:108930000000E03F2DE9FF4F95B09B468946064673
:1089400000250FE2252877D100242746F84A012187
:10895000059400E0044316F8013F203B01FA03F0C0
:108960001042F7D130782A2811D06FF02F033078D9
:10897000A0F13002092A16D8059A44F0020402EB4D
:10898000820203EB42021044761C0590EFE759F88F
:10899000042B0592002A03DA504244F40054059057
:1089A00044F00204761C30782E2816D116F8010FF8
:1089B00044F004042A280DD06FF02F023078A0F183
:1089C0003003092B09D807EB870302EB4303C718D1
:1089D000761CF3E759F8047B761C30786C280FD0AE
:1089E00006DC4C2817D068280DD06A2814D104E082
:1089F000742810D07A280FD10DE044F400140AE056
:108A000044F4801401E044F440147278824202D1AC
:108A100004F58014761C761C307866280BD013DCA5
:108A2000582877D009DC002875D04528F6D046288C
:108A3000F4D047281AD19DE118E0632835D0642886
:108A400079D0652812D195E1702873D008DC6728A9
:108A5000F1D069286FD06E280DD06F2806D1B5E00F
:108A600073282CD0752875D0782874D05A46179959
:108A700090476D1C75E1C4F30250022809D0032809
:108A80000DD0D9F8001004280DD00D6009F10409AB
:108A900067E1D9F80010EA17C1E90052F6E7D9F802
:108AA00000100D80F2E70D70F0E719F8041B8DF847
:108AB000001000208DF80100EA46012003E059F87B
:108AC00004AB4FF0FF3061074FF0000102D40DE01E
:108AD00008F101018846B9420FDA8045F8DB1AF83F
:108AE00008100029F4D108E008F10101884681420C
:108AF000FADB1AF808100029F6D105985B46A0EBBE
:108B0000080721463846179A00F094FA284400EBEB
:108B1000080507E04DE029E10DE01AF8010B5A467F
:108B200017999047B8F10108F7D25B4621463846BD
:108B3000179A13E142E00A220092C4F302524FF066
:108B4000000A022A08D059F804CB032A4FEAEC7134
:108B50000AD00DE029E02AE009F1070121F007021F
:108B6000F2E802C1914609E00FFA8CFC4FEAEC7181
:108B7000042A03D14FFA8CFC4FEAEC71002907DA82
:108B80000A460021DCF1000C61EB02012D2202E01B
:108B9000220504D52B228DF80420012203E0E207F0
:108BA00001D02022F7E7904659E00A2102E0102286
:108BB0000DE010214FF0000A00910BE010224FF061
:108BC000000A44F004040827009203E008224FF052
:108BD000000A0092C4F30252022A05D059F804CBCD
:108BE0000021032A08D009E009F1070121F007025A
:108BF000F2E802C1914605E01FFA8CFC042A01D17B
:108C00000CF0FF0C4FF00008220728D5702806D082
:108C1000009B83F0100353EA0A0305D00EE04022C4
:108C20008DF80420012208E05CEA010206D030221F
:108C30008DF804208DF8050002229046009B83F0F9
:108C4000080353EA0A030AD15CEA010201D1620770
:108C500005D530228DF804204FF001087F1E5828DA
:108C600004D034A003900EA802900DE036A0F9E7DE
:108C700053466046009AFDF7B5FB84460398825C34
:108C80000298401E029002705CEA0100F0D1029846
:108C900006A9081A00F1200A600702D524F48034DE
:108CA00000E00127574502DDA7EB0A0000E00020A5
:108CB00000EB0A01009005984144401A0590E0033A
:108CC00006D45B462146179A059800F0B3F905448F
:108CD000002706E001A85A46C05D179990476D1C11
:108CE0007F1C4745F6DBE0030CD55B462146179A0F
:108CF000059800F09FF9054404E030205A46179982
:108D000090476D1C0099481E00900029F5DC08E092
:108D1000029802995A460078491C02911799904787
:108D20006D1CBAF10001AAF1010AF1DC65E1000055
:108D30000928010030313233343536373839616231
:108D400063646566000000003031323334353637F5
:108D500038394142434445460000000000F058F9CC
:108D60000544761C307800287FF4ECAD19B0284615
:108D7000BDE8F08F620700D4062709F1070222F050
:108D8000070CFCE80223E14603F000485FEA080C08
:108D900002D00FF2702C0DE05FEA045C02D50FF2F6
:108DA000682C07E05FEAC47C02D00FF2602C01E07F
:108DB000AFF2700C4FF0FF3823F00043CDF850C0F5
:108DC00065280CD006DC452809D046281DD0472848
:108DD0003DD13DE0662818D067287ED138E00021DB
:108DE000112F01DB112000E0781CCDE9000106A95C
:108DF0000EA8FFF7DDFCDDE90F010E9A03910021BB
:108E0000009207F1010A04914DE04FF000400097F5
:108E1000CDE9011006A90EA8FFF7CAFCDDE90F0293
:108E200003920E9B11990022DDF80CA0009304928E
:108E300011B9791C00EB010AB7EB0A0004D4C0F1A8
:108E4000FF3007F1010A0490AAEB0700019044E00B
:108E5000012F00DA01270021112F01DD112000E090
:108E60003846CDE9000106A90EA8FFF7A1FCDDE90F
:108E70000F010E9A0391002104910092BA46210736
:108E80000CD40399514500DA8A46BAF1010F05DD89
:108E9000009AAAF10101515C302908D0B84202DAE7
:108EA00010F1040F06DA0121CDE9011015E0AAF155
:108EB0000101E9E7002805DC049901440491AAEBCB
:108EC000000102E0411C514500DD8A460499401A28
:108ED000401C01904FF000400290200704D40198FC
:108EE000504501DBCDF8048000208DF84F0002983A
:108EF0000DF14F07B0F1004F25D02B200E900298B6
:108F00004FF0020800280CDA404202902D200E900B
:108F100007E00A210298FDF74DFC3031029007F876
:108F2000011DB8F10001A8F10108F2DC0298002847
:108F3000EFD1791E0E980870307800F0200040F0D4
:108F4000450007F8020D12A8C01B00F1070814988D
:108F5000007800B1012000EB0A01019801EBE071FB
:108F600005984144401A401E0590E00306D45B4634
:108F70002146179A059800F05DF80544149800788A
:108F800018B15A46179990476D1CE00324D55B46EB
:108F90002146179A059800F04DF805441CE0049806
:108FA000002807DBDDE90301884203DD0098405C0F
:108FB000179901E0179930205A469047049805F117
:108FC0000105401C04900198401E019004D12E2000
:108FD0005A46179990476D1CBAF10001AAF1010A8F
:108FE000DDDC05E017F8010B5A46179990476D1C18
:108FF000B8F10001A8F10108F4DC5B462146179A9C
:109000000598ABE62D0000002B00000020000000BA
:109010002DE9F041044600251E461746880404D475
:1090200005E039462020B0476D1C641EF9D528465E
:10903000BDE8F0812DE9F041044600251E4690462A
:10904000C80301D5302700E02027880404D505E0B7
:1090500041463846B0476D1C641EF9D52846BDE828
:10906000F0814A68002A06D00A68531C0B60107011
:109070004868401E486070470A68531C0B601070B7
:109080007047800701D00020704701207047000022
:109090000A4A0B4B52F8202053F8200002EB003311
:1090A0008B4208D84FF4805303EB003010448842C1
:1090B00001D901207047002070470000742F002064
:1090C00008570020C3688B4206D811440069491E26
:1090D000814201D8012070470020704710B501225D
:1090E0000221002002F03EFF08B1072810D107221C
:1090F0000221012002F036FF08B1072808D1002123
:109100000A22084602F02EFF08B1072800D10020ED
:1091100010BD022002F000BE01F0BAB81CB5144C1C
:109120002078002823D06078002820D0134A9FEDB3
:10913000110B51EC100B9060D16051EC100B1060D2
:1091400051600CF045FF0E48017B01F0FE010173F8
:109150000DF018F80020207060700AA17D20CDE984
:109160000001184B184A19A1042003F09DFF1CBDF3
:10917000CC2A00200000000000F08F40162C0020B8
:10918000F32B00205B495D20545559415F415050FD
:109190003A206170705F6163746976655F726570B3
:1091A0006F72745F66696E69736865645F616E642F
:1091B0005F646973636F6E6E6563745F68616E642C
:1091C0006C657200FECC0300C0FA03004E4F5F5482
:1091D0004147000011200FF0ADBA002000F068B840
:1091E0001CB515480078E0B19FED140B154A51EC01
:1091F000100B9060D16051EC100B106051600CF0BE
:10920000E7FE1148017B41F0010101730CF0BAFF48
:10921000062007F061FC0D49012008700CA13C20DC
:1092200001E015A13F20CDE900011D4B1D4A1EA103
:10923000042003F039FF1CBDC42B002000000000F7
:1092400000005940162C0020F32B0020CC2A0020CF
:109250005B495D20545559415F4150503A2061703F
:10926000705F6163746976655F7265706F72745F59
:1092700073746172740000005B495D20545559415C
:109280005F4150503A2064657669636520697320B8
:109290006E6F74206164766572746973696E6700BD
:1092A000CFCC0300C0FA03004E4F5F54414700008B
:1092B0001CB5164C2178002927D048B1012824D1AB
:1092C000062007F015FC0120607011A15C2014E05D
:1092D0001D48007878B19FED1D0B1E4A51EC100B14
:1092E0009060D16051EC100B106051600CF070FE7A
:1092F00019A1512001E026A15420CDE900012E4BF7
:109300002E4A2FA1042003F0CFFE1CBDCC2A002042
:109310005B495D20545559415F4150503A2061707E
:10932000705F6163746976655F7265706F72745F98
:1093300073746F703A206465766963652069732081
:10934000626F6E64696E6700C42B0020000000002D
:1093500000F08F40162C00205B495D205455594188
:109360005F4150503A206170705F61637469766547
:109370005F7265706F72745F73746F703A20333010
:10938000732069732074696D656F75740000000047
:109390005B495D20545559415F4150503A20646506
:1093A00076696365206973206E6F742061647665E9
:1093B00072746973696E6700E7CC0300C0FA03003A
:1093C0004E4F5F544147000070B50024064D06E043
:1093D0006868012110F834000AF02CFC641C28781D
:1093E0008442F5D3002070BD00300020F8B515464A
:1093F0000C460646052A01D20720F8BD0AF014FDE6
:1094000018B90AF0DBFC0028F7D1124900224E609F
:109410000C708D60C1E90422C1E906220E4D0DE0F9
:1094200006EBC4002968009181788DF8011000785E
:109430000A4A69460AF050FC0028DED1641EE4B2F4
:10944000EED2BDE8F84004480021054A001D01F0B5
:109450007DBC0000003000206CF50300B1DD02008F
:10946000F5CC020010B505F07BFABDE8104001F024
:109470009BB9000030B587B00D46012826D06FF4A7
:109480008051401825D0B0F5405F25D06FF4405191
:10949000C8420FD1118850681FA22223CDE90032A3
:1094A000CDE90201264B27A22AA1042003F0FCFDEE
:1094B00007B030BD29A03521CDE90010204B21A2F5
:1094C000029524A1042003F0EFFDF1E72DA119205E
:1094D00019E037A11D2016E0144690680AF04AFBF7
:1094E000D4E90012CDE90302CDE905153CA12A20FB
:1094F000A2688DE80700124B12A216A1042003F007
:10950000D3FD44A13020CDE900010D4B0DA211A1E6
:10951000042003F0C9FDCBE75B495D205455594158
:109520005F4150503A20415353455254494F4E20C9
:109530004641494C45442061742025733A25750005
:109540004AF403002E2E5C2E2E5C2E2E5C6D61697B
:109550006E2E63004E4F5F54414700005B495D2013
:10956000545559415F4150503A20554E4B4E4F573C
:109570004E204641554C54206174203078253038B7
:10958000580000005B495D20545559415F415050DF
:109590003A20534F46544445564943453A20415397
:1095A00053455254494F4E204641494C45440000D2
:1095B0005B495D20545559415F4150503A20534F0B
:1095C00046544445564943453A20494E56414C4934
:1095D00044204D454D4F525920414343455353007C
:1095E0005B495D20545559415F4150503A204552E6
:1095F000524F52202575205B25735D206174202514
:10960000733A25750D0A50432061743A203078254D
:10961000303878005B495D20545559415F415050C6
:109620003A20456E64206F66206572726F722072F8
:1096300065706F72740000000EB500210091CDE9D5
:1096400001106A4644F20100FFF714FF0EBDC16825
:1096500081600020704710B58268C368934203D0D0
:1096600004F02DF9002010BD052010BD29B112B164
:10967000531E134203D0092070470E20704701602B
:10968000838000218160C1600846704710B5826800
:10969000C3689A1A83889A4203D804F01AF9002002
:1096A00010BD042010BD00002DE9FF476B4D88461A
:1096B0009146297804260027032903D068A14FF496
:1096C000C37006E004460078002818D071A140F26B
:1096D0009510CDE900017D4B7DA28BA1042003F004
:1096E000E3FC02978DF80960022202A9484600F0C7
:1096F000B3FD00F041FA012004B0BDE8F08702217B
:10970000601C01F031F80221E01C01F02DF802216B
:10971000601D01F029F803978DF80C70B4F8012052
:1097200068680121401C824202D08DF80D107CE057
:10973000B4F80310A8F10700814203D002208DF88D
:109740000D0072E00022E01D00F0BCFDB4F8051031
:109750004FF00308884202D08DF80D8065E08DF847
:109760000D70A868002740B1010BB4F8032009036D
:10977000024401F58051914210D84FF4805720B92E
:1097800039464FF48C2000F03FFFA86839466FF34C
:109790000B0000F58E2000F037FF0127A868B4F811
:1097A0000320E11D00F58C2000F064FF10B18DF85E
:1097B0000D603AE0B4F80300A96808445449A86071
:1097C000096881420FD96A6852A14FF4E9708DE8A7
:1097D00007003E4B3EA24CA14FF0040003F064FC96
:1097E00085F8008004E001D12E7001E08DF80D6055
:1097F000686800F101006860184AB4F8031002F1CB
:109800000C0204F1070000F05FFDE8606FB1134A3D
:10981000042308320921002000F00EFF0F4A042320
:109820000C320A21002000F007FF022203A948465B
:1098300000F012FD9DF80D0068B13DA14FF4F572E6
:10984000CDE900210290214B21A22FA1042003F099
:109850002BFC00F091F900204EE70000BC2A00200C
:109860005B455D20545559415F4150503A20545555
:1098700059415F424C455F4F54415F444154412D33
:1098800020735F6F74615F737461746520657272B9
:109890006F7200005B455D20545559415F41505047
:1098A0003A20545559415F424C455F4F54415F4403
:1098B0004154412D206F74615F646174612D3E7469
:1098C000797065206572726F72000000A6CC03008B
:1098D0002E2E5C2E2E5C2E2E5C747579615F626C70
:1098E000655F73646B5F64656D6F5C7372635C610D
:1098F00070705C6170705F636F6D6D6F6E5C6170D6
:10990000705F6F74612E63004E4F5F5441470000DB
:10991000373700205B495D20545559415F41505015
:109920003A20735F706B675F69643A2025640000BA
:109930005B455D20545559415F4150503A20545584
:1099400059415F424C455F4F54415F444154412D62
:10995000206572726F7269643A202564000000000D
:1099600003480078002801D000F006B970470000D5
:10997000BC2A00202DE9FF41404E90463278032555
:109980000024042A03D03EA140F2F91007E0012987
:1099900002D10078002818D046A140F20720CDE976
:1099A00000014F4B4FA25DA1042003F07DFB029408
:1099B0008DF80950022202A9404600F04DFC00F04B
:1099C000DBF8012004B0BDE8F0810921002000F09F
:1099D00019FE0A21002000F015FE0821002000F0E9
:1099E00011FE03944F4D8DF80C40B0682968012793
:1099F000814202D08DF80D7028E000F0A3FA69686A
:109A0000884203D002208DF80D001FE08DF80D4034
:109A1000777045A140F22720CDE90001304B31A2FB
:109A20003EA1042003F040FB464E68683C21B06232
:109A30002868F762706206F13800FCF742FD4FF4C7
:109A40008C2034637066404800F084FC022203A935
:109A5000404600F001FC9DF80D0068B13BA140F2CA
:109A60003522CDE9002102901D4B1EA22BA104201E
:109A700003F01AFB00F080F80020A3E7BC2A0020C6
:109A80005B455D20545559415F4150503A20545533
:109A900059415F424C455F4F54415F454E442D2034
:109AA000735F6F74615F7374617465206572726F48
:109AB000720000005B455D20545559415F41505094
:109AC0003A20545559415F424C455F4F54415F45E0
:109AD0004E442D2074797065206572726F7200009B
:109AE000BBCC03002E2E5C2E2E5C2E2E5C74757962
:109AF000615F626C655F73646B5F64656D6F5C73FF
:109B000072635C6170705C6170705F636F6D6D6FCC
:109B10006E5C6170705F6F74612E63004E4F5F54B6
:109B200041470000373700205B495D2054555941BB
:109B30005F4150503A206F746120737563636573A1
:109B400073000000EC7E002061A202005B455D20F6
:109B5000545559415F4150503A20545559415F4244
:109B60004C455F4F54415F454E442D206572726FE6
:109B70007269643A2025640010B5094C607838B9E0
:109B80004FF41E710748FCF79CFC002000F0E2FB3C
:109B900000202070032006F09FFF002010BD000071
:109BA000BC2A0020EC7E0020F0B54B4E8BB0154651
:109BB0003178012903D049A14FF4857006E00446AD
:109BC000007800280FD053A14FF48A70CDE900012E
:109BD0005F4B60A26DA1042003F066FAFFF7CCFF93
:109BE00001200BB0F0BD042104F1090000F0BCFD20
:109BF000042104F11D0000F0B7FD042104F121004F
:109C000000F0B2FD6348D4F81D1010220160D4F8B2
:109C10002110416004F10D010830FCF739FC1C21D2
:109C200003A8FCF74EFC00278DF80C7008225AA1FF
:109C3000601CFCF776FC08B1012004E0D4F80910A0
:109C40000220042902D88DF80D0009E0D4F81D1077
:109C5000B1F5003F01D90320F5E78DF80D703070A4
:109C60004C4A042318320921002000F0CFFC494C53
:109C700004231834221D0A21002000F0C7FC2068AC
:109C8000CDF80E0003AE0421B01C00F06DFD60683D
:109C9000CDF812000421B01D00F066FD10210DF179
:109CA0001600FCF70EFC1A2203A9284600F0D4FA8D
:109CB0009DF80D0068B13BA14FF49F72CDE90021E2
:109CC0000290234B23A231A1042003F0EDF9FFF70A
:109CD00053FF002085E70000BC2A00205B455D2083
:109CE000545559415F4150503A20545559415F42B3
:109CF0004C455F4F54415F46494C455F494E464F86
:109D00002D20735F6F74615F737461746520657279
:109D1000726F72005B455D20545559415F41505050
:109D20003A20545559415F424C455F4F54415F467C
:109D3000494C455F494E464F2D2066696C655F6909
:109D40006E666F2D3E74797065206572726F720059
:109D500070CC03002E2E5C2E2E5C2E2E5C7475793A
:109D6000615F626C655F73646B5F64656D6F5C738C
:109D700072635C6170705C6170705F636F6D6D6F5A
:109D80006E5C6170705F6F74612E63004E4F5F5444
:109D90004147000037370020707878797570683453
:109DA000000000005B455D20545559415F41505013
:109DB0003A20545559415F424C455F4F54415F46EC
:109DC000494C455F494E464F2D206572726F72694E
:109DD000643A2025640000002DE9F041354C86B03E
:109DE00090462178022903D033A140F24D1005E0BE
:109DF0000546007880B1404940F25710CDE9000196
:109E00003E4B3FA24CA1042003F04EF9FFF7B4FEF5
:109E1000012006B0BDE8F0810421681C00F0A4FC1C
:109E20000026009601968DF80060D5F80100444F99
:109E300030B3042307F110020921002000F0E6FBF3
:109E4000042307F114020A21002000F0DFFB102395
:109E500002AA0821002000F0D9FB1022394602A8EE
:109E6000FCF75FFB68B9A06800F06CF8E168884215
:109E700007D1D5F80110A068814202D3CDF80100C6
:109E800003E0CDF80160A660E66010233A460821A1
:109E9000002000F0D1FB04210DF1010000F064FC72
:109EA00005226946404600F0D7F9032020700020C3
:109EB000AFE70000BC2A00205B455D2054555941A6
:109EC0005F4150503A20545559415F424C455F4FD5
:109ED00054415F46494C455F4F46465345545F5297
:109EE00045512D20735F6F74615F737461746520D9
:109EF0006572726F720000007CFA03008ACC030066
:109F00002E2E5C2E2E5C2E2E5C747579615F626C39
:109F1000655F73646B5F64656D6F5C7372635C61D6
:109F200070705C6170705F636F6D6D6F6E5C61709F
:109F3000705F6F74612E63004E4F5F5441470000A5
:109F40003F370020F8B5002827D000210091C0211C
:109F5000B0FBF1F2B0FBF1F601FB12074FF48C24D9
:109F600000250CE0C0220E49204611F064FC6A4630
:109F7000C0210B4800F0A8F9C0346D1C0090B54218
:109F8000F0D35FB1C0220649204611F054FC6A4666
:109F90003946034800F098F90090F8BD0098F8BDE4
:109FA0007736002030B585B0044600788DF80C0077
:109FB0002078032825D026A14022CDE90021029057
:109FC0002B4B2CA239A1042003F06EF860884125A8
:109FD00038A10095CDE90110254B26A233A104201C
:109FE00003F062F8638808213CA062680DF09EF8D7
:109FF0003AA0CDE900501E4B1EA22CA1042003F074
:10A0000053F82078052809D2DFE800F0030A10167B
:10A010001C00618803AA606800F066F805B030BDD6
:10A02000618803AA6068FFF7BFFDF7E7618803AAAC
:10A030006068FFF7D1FEF1E7618803AA6068FFF767
:10A0400033FBEBE7618803AA6068FFF793FCE5E761
:10A050005B495D20545559415F4150503A206F741F
:10A06000615F636D645F747970653A2025640000F8
:10A070004CCC03002E2E5C2E2E5C2E2E5C7475793B
:10A08000615F626C655F73646B5F64656D6F5C7369
:10A0900072635C6170705C6170705F636F6D6D6F37
:10A0A0006E5C6170705F6F74612E63004E4F5F5421
:10A0B000414700005B495D20545559415F41505074
:10A0C0003A206F74615F636D645F64617461205BEB
:10A0D0006C656E3D25645D203A00000000000000C4
:10A0E000012000F035B90000F0B5304D174685B0BD
:10A0F0002A780024012612B12DA1D52006E00129DD
:10A1000002D10078002818D036A1E320CDE9000163
:10A110003F4B40A24DA1042002F0C6FF02940394DD
:10A1200004948DF80860092202A9384600F094F8DA
:10A13000FFF722FD012005B0F0BD4FF0FF30686051
:10A14000AC60EC606C7018214248FCF7BAF94148E9
:10A1500018211830FCF7B5F941F288330022182194
:10A16000142000F0A1F800F083F800948DF800406E
:10A1700003208DF80100019402948DF80240042020
:10A18000CDF8030001466C46E01C00F0EDFAC0205B
:10A19000ADF807000221E01D00F0E6FA0922694649
:10A1A000384600F059F82E700020C4E7BC2A002081
:10A1B0005B455D20545559415F4150503A205455FC
:10A1C00059415F424C455F4F54415F5245512D20EC
:10A1D000735F6F74615F7374617465206572726F11
:10A1E000720000005B455D20545559415F4150505D
:10A1F0003A20545559415F424C455F4F54415F529C
:10A2000045512D20706172616D206572726F720010
:10A210005CCC03002E2E5C2E2E5C2E2E5C74757989
:10A22000615F626C655F73646B5F64656D6F5C73C7
:10A2300072635C6170705C6170705F636F6D6D6F95
:10A240006E5C6170705F6F74612E63004E4F5F547F
:10A2500041470000373700204160428000F00CBACF
:10A26000FFF78ABC38B5049C00940EF097F938BD0E
:10A270001CB500200090019001208DF80000694677
:10A28000022067DF041E01D0FFF7D6F920461CBD6F
:10A29000034810B5008813210CF072FC002010BD9B
:10A2A000402C00200DF090BB38B5044600930448C4
:10A2B00013460A46008821460CF0F0FB002038BD0A
:10A2C000402C00200DF08CBB0DF0AABB1CB507A1E3
:10A2D00040F23310CDE900010B4B0CA21AA104206F
:10A2E00002F0E2FE0EF0E2FF00201CBD5B495D20A3
:10A2F000545559415F4150503A2064657669636511
:10A3000020726573657400008FCD03002E2E5C2EC5
:10A310002E5C2E2E5C747579615F626C655F736470
:10A320006B5F64656D6F5C7372635C6170705C61C0
:10A3300070705F636F6D6D6F6E5C6170705F706F7A
:10A3400072742E63000000004E4F5F5441470000BE
:10A3500008F092BB08F0E4BBFEB50C4606460EF0D2
:10A3600099FD03281BD0CA251DA00095CDE9010445
:10A37000254B26A234A1042002F096FEA3B2324659
:10A38000082130A00CF0D2FE2EA0CDE900501E4BCB
:10A390001EA22DA1042002F087FE0120FEBDC725CC
:10A3A0002BA00095CDE90104174B18A226A104208B
:10A3B00002F07AFEA3B23246082122A00CF0B6FECB
:10A3C00020A0CDE90050104B10A21FA1042002F0E4
:10A3D0006BFE03B021463046BDE8F0400EF08FBF63
:10A3E0005B495D20545559415F4150503A2064709B
:10A3F0005F7273705F756E636F6E6E205B6C656EFF
:10A400003D25645D203A000044CD03002E2E5C2ED5
:10A410002E5C2E2E5C747579615F626C655F73646F
:10A420006B5F64656D6F5C7372635C6170705C61BF
:10A4300070705F636F6D6D6F6E5C6170705F706F79
:10A4400072742E63000000004E4F5F5441470000BD
:10A450005B495D20545559415F4150503A2064702A
:10A460005F727370205B6C656E3D25645D203A0001
:10A47000FEB514460F4605460EF00CFD03282AA033
:10A4800025D0DA21CDE900102E4B2FA202953DA157
:10A49000042002F009FEDB253CA00095CDE9010473
:10A4A000284B29A237A1042002F0FEFDA3B23A46B0
:10A4B000082133A00CF03AFE31A0CDE90050214B29
:10A4C00021A230A1042002F0EFFD0120FEBDD62123
:10A4D000CDE900101B4B1CA202952AA1042002F01A
:10A4E000E3FDD72636A00096CDE90104154B16A250
:10A4F00024A1042002F0D8FDA3B23A46082120A0EE
:10A500000CF014FE1EA0CDE900600E4B0EA21DA1A2
:10A51000042002F0C9FD03B0224639462846BDE8B2
:10A52000F0400EF026BF00005B495D2054555941B4
:10A530005F4150503A2074696D657374616D703A73
:10A54000202564005CCD03002E2E5C2E2E5C2E2E6A
:10A550005C747579615F626C655F73646B5F646581
:10A560006D6F5C7372635C6170705C6170705F636F
:10A570006F6D6D6F6E5C6170705F706F72742E6363
:10A58000000000004E4F5F54414700005B495D20D2
:10A59000545559415F4150503A2064705F72737056
:10A5A0005F74696D657374616D705F756E636F6EF6
:10A5B0006E205B6C656E3D25645D203A00000000F6
:10A5C0005B495D20545559415F4150503A206470B9
:10A5D0005F7273705F74696D657374616D70205B19
:10A5E0006C656E3D25645D203A00000003F03DB9C6
:10A5F0000EF050BC0CF05EBC0CF068BC0020704744
:10A600000DF02CBA0BF0D2B811F009B90BF0F6B975
:10A6100010B500200BF022F901200BF01FF90220E9
:10A620000BF01CF903200BF019F904200BF016F9BC
:10A63000002010BD11F0FFB80BF048BA10B5022190
:10A640004FF4D4200BF0E4FB02214FF4D8200BF0A0
:10A65000DFFB02214FF4DC200BF0DAFB02214FF488
:10A66000E0200BF0D5FB02214FF4E4200BF0D0FBEF
:10A67000002010BD11F0E4B83EB504460078032870
:10A6800025D015A1E722CDE9002102901A4B1BA28B
:10A6900029A1042002F008FD6088E82528A1009582
:10A6A000CDE90110144B15A223A1042002F0FCFCFB
:10A6B000638808211FA062680CF038FD1DA0CDE959
:10A6C00000500D4B0DA21CA1042002F0EDFC204611
:10A6D000BDE83E4011F0B9B85B495D205455594181
:10A6E0005F4150503A206F74615F7273705F74798C
:10A6F00070653A20256400007ECD03002E2E5C2E6E
:10A700002E5C2E2E5C747579615F626C655F73647C
:10A710006B5F64656D6F5C7372635C6170705C61CC
:10A7200070705F636F6D6D6F6E5C6170705F706F86
:10A7300072742E63000000004E4F5F5441470000CA
:10A740005B495D20545559415F4150503A206F7428
:10A75000615F7273705F64617461205B6C656E3DF4
:10A7600025645D203A0000000DF08BB90CF06EBB43
:10A7700010B50DF0E1F9C0B210BD10B50DF0F7F94C
:10A78000C0B210BD0CF0C0BF0DF02CB80DF08AB8EF
:10A790000EF09EBC10B50DF0B3F8002010BD10B542
:10A7A0000DF00AF9002010BD042006F095B9000054
:10A7B0001CB508A1C220CDE90001114B11A220A1B6
:10A7C000042002F071FC20484FF0FF31418001214C
:10A7D00001701CBD5B495D20545559415F4150508B
:10A7E0003A206170702074657374206D6F64652009
:10A7F000656E746572207375636365737321000001
:10A8000030CD03002E2E5C2E2E5C2E2E5C747579BE
:10A81000615F626C655F73646B5F64656D6F5C73D1
:10A8200072635C6170705C6170705F636F6D6D6F9F
:10A830006E5C6170705F746573742E63000000005D
:10A840004E4F5F5441470000CE2A00200F200DF0EC
:10A8500071BF00F001B8000002480121417000788A
:10A8600070470000CE2A00202DE9F0410E4C05462D
:10A87000164660780F4618B915B9284600F016F844
:10A88000207800280DD0002D0BD0B4F902008542AD
:10A8900007D06580324639462846BDE8F04100F0D1
:10A8A00005B8BDE8F0810000CE2A002010B50446AE
:10A8B00029489AB0007840B1092C44D2DFE804F06E
:10A8C000070E141C22282C334500002C3BD1FFF727
:10A8D0006FFF22A001220068009030E0182220A122
:10A8E0006846FBF7D5FD02E023A00FC824E06846C8
:10A8F000FBF710FE82B222E01AB02046BDE81040FD
:10A9000000F0CAB91AB02046BDE8104000F076B891
:10A91000052006F0E1F80DE01BA31CA225A1684666
:10A92000FCF7DEFF16E001F10802132305210020E9
:10A93000FFF782FE10A30FCB8DE80F00D7E7694623
:10A94000204600F087F91AB010BD322224A16846D3
:10A95000FCF7C6FFC2B2F2E7CE2A002001000000D9
:10A960007B22726574223A747275652C2268696460
:10A97000223A22227D0000007B22726574223A7402
:10A980007275657D00000000302E340074757961A9
:10A990005F626C655F6C6F636B5F66697474696E30
:10A9A00067735F636F6D6D6F6E5F626B33343331EE
:10A9B000710000007B22726574223A747275652CF6
:10A9C000226669726D4E616D65223A222573222CD2
:10A9D000226669726D566572223A222573227D00C5
:10A9E0007B22726574223A747275652C22727373BD
:10A9F00069223A222564227D000000002DE9F047FB
:10AA000082466D4C6DA00423006820602246072119
:10AA10000020FFF711FE0423221D07210020FFF76D
:10AA2000F5FD0422211D2046FBF77BFD58B10D22C8
:10AA300064A12046FBF72CFD0D225046BDE8F047EF
:10AA40005D4900F007B97B20207022255A4961A09A
:10AA50006570008848804FF0740881F804800846CB
:10AA600065713A2655A1A6710968C0F807102C2710
:10AA7000E77259A125730A6840F80D2F89888180F3
:10AA8000E5744D4826756575163020225449FBF74C
:10AA9000FFFC84F8365084F83770474851A184F899
:10AAA0003850098820F8391F6421817084F83C509F
:10AAB000414A84F83D6084F83E503F32132305211B
:10AAC0000020FFF7A3FD84F8525084F853703A48F1
:10AAD00045A184F854500968C0F8551084F85950BD
:10AAE0003F4984F85A6084F85B505C301022163974
:10AAF000FBF7CEFC84F86C5084F86D703CA084F8B1
:10AB00006E500088A4F86F00632084F8710084F808
:10AB1000725084F873604FF0720984F8745004F135
:10AB200075010C224FF4EE20FFF784FD84F881506C
:10AB300084F882702FA084F883500168C4F88410D0
:10AB40004068C4F8880084F88C5084F88D6084F8DC
:10AB50008E5004F18F00252229A1FBF799FC84F87F
:10AB6000B45084F8B57030A084F8B650016844F849
:10AB7000B71F8088A08084F80690E57126722CA00B
:10AB8000657200886081342020736573A77329A0E3
:10AB9000E573016821614068606184F8188065761A
:10ABA00027A0A6760068C4F81B006520E0777D200A
:10ABB00084F82000D82240E767370020747275655A
:10ABC000000000007B22726574223A66616C736536
:10ABD0007D0000007265740061757A4B6579000034
:10ABE000F140002068696400757569640000000028
:10ABF0006D6163006669726D4E616D6500000000F5
:10AC0000747579615F626C655F6C6F636B5F6669B9
:10AC10007474696E67735F636F6D6D6F6E5F626B87
:10AC200033343331710000006669726D566572000D
:10AC3000302E340070726F645F74657374000000AE
:10AC400066616C736500000010200DF073BDFFF7A6
:10AC50003DBB000070B50F4C154666222270AA223B
:10AC600062700022A270E070280A207165712A4685
:10AC7000A01DFBF70DFCAD1DADB229462046FFF728
:10AC800011FB60556D1CA9B22046BDE87040FFF76E
:10AC900081BD00006738002030B587B00C4603F056
:10ACA00053FE202204F10B011F48FBF7F1FB1E4865
:10ACB000102204F135011638FBF7EAFB11F03AF9DE
:10ACC00019481621EF30FBF7FCFB11F05DF904F198
:10ACD0004E006A460C210546FFF74AFD70B113A0ED
:10ACE00002AC0FC884E80F0002A8FBF713FC82B285
:10ACF00002A90320FFF7AEFF07B030BD6846FFF79B
:10AD000035FD4FF4EE2401212046FFF77DFC0C2297
:10AD100029462046FFF7AEFC0C232A4606210020D8
:10AD2000FFF78AFC05A0DBE7F14000207B2272657B
:10AD300074223A66616C73657D0000007B22726547
:10AD400074223A747275657D00000000084B9B7890
:10AD500023B12AB120B10068037C1BB108207047E1
:10AD600007207047002303744174426118467047FE
:10AD70007468002070B50AF08DFB104800240B2188
:10AD8000047044700E4D817014206C602C706C70D7
:10AD9000FCF7F1F806211420FCF70EF91420FCF75B
:10ADA000F5F80848046006211120FCF705F905486C
:10ADB000001F0068A860002070BD000074680020BB
:10ADC00020300020081501402DE9FC47DFF878907D
:10ADD00099F8023073B368B3052902D20720BDE8A1
:10ADE000FC87436933B3437C012B25D000270446FD
:10ADF0000025884616468DF80050684600F0DCF8BD
:10AE000001A811F087FCC8B1012101700F4944600D
:10AE10000968C0E90218C0E904769DF8040089F8C1
:10AE200001009DF8000000F0EBF81420FCF7B9F8E1
:10AE30002846D4E70820D2E70F46D8E704259DF836
:10AE4000000000F0DDF8F3E774680020041501400D
:10AE50000649897839B130B1416921B100210174C5
:10AE600002210DF00DB90820704700007468002021
:10AE700010B5024809F0B2F9002010BD40300020A2
:10AE800010B50648FEF7E3FB002805D10348BDE8EE
:10AE900010401030FEF7DBBB10BD000080690020C1
:10AEA00070B50A4E01460A48B578FEF7D4FB044651
:10AEB0004DB10020B070711C0122C81D07F094FE36
:10AEC00008B1FEF7B9FB204670BD00003430002009
:10AED00080690020F0B5244E89B01F460D0004465D
:10AEE00072603FD0A888296882B22048FEF7BEFB76
:10AEF000002835D1A889A96882B21C481030FEF715
:10AF0000B5FB00282CD1202219496846FBF7C0FA6E
:10AF100060690690207C00B101208DF814008DF846
:10AF20001C70607C00B10E208DF81500E068029066
:10AF3000A068039020680190606800900A480D4A5C
:10AF40006946083007F030FE002809D1B07020684B
:10AF5000401C05D004490122491CC81D07F044FECD
:10AF600009B0F0BD0720FBE73430002080690020E5
:10AF700088F5030009C4030010B501460C48FEF72C
:10AF800085FB040011D10B4809F018F968B909498B
:10AF900007480C39FEF75FFB38B9064901220C3926
:10AFA00001F1080007F023FE0446204610BD000012
:10AFB000906900204030002030B5EFF3108172B668
:10AFC0000D4A9468012324B10370002900D162B6B0
:10AFD00030BD93604FF0E023D3F88051074C2540FB
:10AFE0001560C3F88041D3F8844154605A17C3F800
:10AFF000842100220270E8E7A0690020FC06FFBD62
:10B000000B498A68002A11D000280FD1EFF3108075
:10B0100072B60B684FF0E022C2F800314B68C2F8FC
:10B02000043100228A60002800D162B67047000017
:10B03000A069002030B5642453B201292AD0022926
:10B0400028D0B0FBF4F2B0FBF4F504FB150052B2CB
:10B0500049B21A24491C11FB04F10A2491FBF4F1B2
:10B06000C41700EB947400EBA400D41702EB9474A3
:10B0700000EBA400524200EB4200084418440721B0
:10B08000401E90FBF1F2002801FB120000DCC01D05
:10B09000C0B230BD401E90FBF4F290FBF4F504FB0F
:10B0A000150052B240B20C31D2E74FF4C871B0FB78
:10B0B000F1F201FB120149B16421B0FBF1F201FB95
:10B0C000120109B1800701D00020704701207047AC
:10B0D00010B540B10C2806D8022804D00549084410
:10B0E00010F8010C10BD0846FFF7DFFF1C30C0B29E
:10B0F00010BD0000B2CE03002DE9F04106460868FD
:10B100000C46411C4FF0A0474FF0010506D005FA50
:10B1100000F1C7F80815206807F0B1FF6068411C0E
:10B1200002D0002107F0A2FF3168A069C1F8240510
:10B13000607D227D31681043C1F86C05D4E90012AE
:10B140003068C0F81425C0F80C15207D012815D1F1
:10B15000A068411C02D0002107F088FFE068411C74
:10B1600005D08540C7F80855E06807F088FFD4E9A6
:10B1700002123068C0F80825C0F81015BDE8F0814B
:10B1800070B5044600680D46401C14D00022DC2136
:10B19000201D0DF0BFFE2168814201D1012070BD4C
:10B1A00000225021201D0DF0B5FE2168814202D100
:10B1B00001202870F2E7002070BD000078210148CE
:10B1C000FBF77FB92864002070B51500044609D04C
:10B1D0000020286034B1206820B1A079800703D016
:10B1E000072070BD0E2070BD084600F088F8C0B280
:10B1F000142804D02179814203D8042070BD052091
:10B2000070BDE288216800FB02102860002070BD3C
:10B2100070B588B182B10024158803E0065D641C16
:10B220003444A4B2A54203D8061976789E4201D0D0
:10B230008C42F3D38C4201D3002070BDA11C11803D
:10B24000005D401E80B270BD2DE9F0418AB0064617
:10B250000020ADF814001346102088468DF8040035
:10B260000D4606AA01A9184664DFA6B398BB9DF84F
:10B270000400022804D0042807D0102839D10DE09A
:10B2800003208DF81000022003E005208DF8100047
:10B2900004208DF81100002404AF0FE007208DF882
:10B2A00010000620F5E73B5D05AA41463046FFF752
:10B2B000AFFF641CE4B20546022C04D2BDF81400B2
:10B2C0000028F0D003E0BDF81400002812D080B2AE
:10B2D000064400240BE00CE030199DF8042006A978
:10B2E000FBF71FF948B19DF80400204484B2AC423A
:10B2F000F2D300200AB0BDE8F0810120FAE710B5D2
:10B30000044600F007F808B1204610BD142010BD17
:10B31000FFF754BF142801D30020704701460148AD
:10B3200007F04AB82C6400202DE9F041CAB201466A
:10B330002E480CF048FF2D4C06004FF00005A4F1FC
:10B3400014040BD0032E09D065602560A06810B1ED
:10B350000EF064FAA5600120BDE8F0812348244F77
:10B360008079012816D1A06810B10EF057FAA560B7
:10B370001E4802F017FD6060B0F5806F2BD850B307
:10B3800080B225600FF09EF9A06018B36168FBF7EA
:10B3900098F8FD61154802F009FDF96908446168F3
:10B3A00088421BD8A068B0B1104802F0FFFC80466C
:10B3B0000E4802F0F9FC0146A068FA6910444246C2
:10B3C000FBF766F8094802F0F1FCF9690844F861F6
:10B3D00020603EB104E06560256001E00DF028F9D1
:10B3E0000220B9E70020FD61B6E700008446002096
:10B3F000842B00202DE9F041CAB201462E480CF002
:10B40000E2FE2D4C06004FF00005A4F114040BD011
:10B41000032E09D065602560A06810B10EF0FEF91A
:10B42000A5600120BDE8F0812348244F80790128E0
:10B4300016D1A06810B10EF0F1F9A5601E4802F017
:10B44000B1FC6060B0F5806F2BD850B380B225603E
:10B450000FF038F9A06018B36168FBF732F83D626D
:10B46000154802F0A3FC396A0844616888421BD879
:10B47000A068B0B1104802F099FC80460E4802F076
:10B4800093FC0146A0683A6A10444246FBF700F874
:10B49000094802F08BFC396A0844386220603EB1EA
:10B4A00004E06560256001E00DF0D0F80220B9E706
:10B4B00000203D62B6E70000C8830020C8300020AD
:10B4C00070B540B10C4D297839B1044609F0ACFF94
:10B4D00028B1002070BD0E2070BD082070BDE86846
:10B4E000062807D20549226801EB8001401C0A604A
:10B4F000E860EEE7042070BDC82F0020A0640020A3
:10B5000040B1054900220123CA600B70C1E9010264
:10B51000104670470E207047C82F002070B50400F9
:10B520002DD000292BD020480078002827D0208853
:10B530000D46112815D0302804D0322807D03328E2
:10B540001ED109E0211D284609F0C2F918E0211D8D
:10B55000284609F085F813E0211D284609F040F936
:10B560000EE0A088B5F8CA12884209D1002085F8FB
:10B57000C70285F8C8024FF6FF70A5F8CA0270BD71
:10B5800095F8C8020028FAD020883028F7D34F2831
:10B59000F5D8A088B5F8CA128842F0D12846BDE88F
:10B5A000704001F069BC0000C82F002048B1084A73
:10B5B000137843B1D26832B190F8C7222AB1112072
:10B5C00070470E2070470820704701F055BC0000FE
:10B5D000C82F002010B51A4C0188606810290ED0C1
:10B5E00011292BD1401E606028D1FDF777FD00287E
:10B5F00024D02168002921D0BDE810400847D0B9E7
:10B6000000210122084600F0ADFC08B107280FD147
:10B6100007220221012000F0A5FC08B1072807D16C
:10B6200004220221002000F09DFC20B1072802D056
:10B63000216801B188476068401C606010BD00004F
:10B64000B82F00202DE9F04701883B4E40F2F31956
:10B650004FF6FF7510291BD011293ED0122954D066
:10B66000502946D1C188F289841D914241D1618916
:10B6700002293ED18688304602F028FC050038D0E9
:10B6800004F10C0000F014FBA8B3294630464EE04C
:10B69000C17B8788044601292BD1A846284602F0A1
:10B6A00015FC050017D02F80002028722348434640
:10B6B0004A460168C5F80A104068C5F80E0004F152
:10B6C000100105F10A0002F0D9FC6872F089002827
:10B6D0000FD129462AE0042013E0808802F0F6FB0F
:10B6E000040006D06068FFF7B3FB08B109F0C4FF9F
:10B6F0002580BDE8F087FFE76868FFF7A9FB002811
:10B70000F7D0BDE8F04709F0B7BF8788064638464E
:10B7100002F0DCFB0400ECD02B464A4606F108019F
:10B7200004F10A0002F0AAFC607221463846BDE826
:10B73000F04701F03FB800000C640020C02F00204B
:10B740002DE9F04F0746858802883D48012197B0D2
:10B750008346102A09D0112A49D01A2A6CD1387A86
:10B76000B1EB101F45D2012244E0354C083CA068E3
:10B77000C0430B9061680BA806F03FFE0B990CA824
:10B7800000F0EEFF2C220CA96846FAF781FE002695
:10B79000E946A04610E000BF09EB46005FF0000458
:10B7A000B0F804A008EB84005146001D06F0F9FD36
:10B7B000641C1D2CF6D3761C0098B042ECD8142DD6
:10B7C00005D317B00420BDE8F04FFDF735BF29467B
:10B7D000584606F0FCFD294608F1040006F0F7FD86
:10B7E000F87B012828D016482946001D15E0294677
:10B7F0001AE000220221B1EB101F01D2012600E065
:10B8000000260F49083901F11000041D294682B1B4
:10B8100006F0DDFD36B12946204617B0BDE8F04FF1
:10B8200006F0D5BD2946204617B0BDE8F04F06F01A
:10B83000B8BD06F0B6FDF5E717B0BDE8F08F000023
:10B84000306400207CB50878144D0C4620B10128E6
:10B8500023D1A28989681BE011A1C720CDE900018D
:10B860001B4B1CA228A1042001F01EFC618804F1DE
:10B870000E02274800F04EF808B1FDF7DDFE24481F
:10B8800000F018F908B1FDF7D7FE00221146104666
:10B89000EB6802B0BDE8704018477CBD5C2C00200E
:10B8A0005B495D20545559415F4150503A20424C0C
:10B8B000455F4E55535F435F4556545F444953437C
:10B8C0004F564552595F434F4D504C45544500002B
:10B8D000F3F103002E2E5C2E2E5C2E2E5C747579F7
:10B8E000615F626C655F73646B5F64656D6F5C73F1
:10B8F00072635C7375626C655C7375626C655F73B3
:10B9000076632E63000000004E4F5F5441470000F5
:10B910006C4E002048B141802AB15188C180118805
:10B92000818091880181002070470E2070470000BF
:10B9300030B5124B0D4604000FCB85B08DE80F00DB
:10B9400019D0C5B12146684662DF002811D12078A0
:10B950008DF8120041F61010ADF810004FF6FF7090
:10B9600060802868E0600020A080208104A8FFF7A4
:10B97000A7FD05B030BD0E20FBE700003CF503003D
:10B9800010B5024686B008002ED0002A2CD041887F
:10B990004FF6FF73994202D09488A14224D11488B3
:10B9A000112C14D0392C1FD1818800291CD0538927
:10B9B0008B4219D1C168002916D001218DF80010E1
:10B9C00002F110010291D189ADF80C1009E09288C2
:10B9D0008A4209D1C168002906D002218DF80010E1
:10B9E0004380C2686946904706B010BD30B585B047
:10B9F0000C46054614216846FAF763FD207804F1E9
:10BA00000E01002834D1A088A0F5C852103A2FD1D9
:10BA1000A0792A7890422BD1002219E002EBC200D3
:10BA200031F81030A3F53163B3F5005307D0012B83
:10BA30000DD101EB40000089ADF8120007E001EBE9
:10BA400040000389ADF80E304089ADF81000521C5B
:10BA5000207A9042E2D8E868002809D06088ADF8E2
:10BA6000020000208DF80000EA68694628469047E9
:10BA700005B030BD3EB518B1142A03D907203EBD2C
:10BA80000E203EBD4388A3F57F44FF3C0DD0084DFA
:10BA900038CD8DE8380003890291ADF80230ADF859
:10BAA000062040886946A3DF3EBD08203EBD000059
:10BAB00058F503001FB5010019D04888A0F57F4252
:10BAC000FF3A16D0C988A1B101228DF80C200A4B8B
:10BAD00000228DF80D20D3E90423CDE90023ADF831
